{
  "address": "0x81a5A46ce2fE868404BD43c7876B1187CF3C0341",
  "abi": [
    {
      "inputs": [
        {
          "internalType": "address",
          "name": "_TCO2Faucet",
          "type": "address"
        },
        {
          "internalType": "address",
          "name": "_TCO2Token",
          "type": "address"
        },
        {
          "internalType": "address",
          "name": "_EPNS_COMM_ADDRESS",
          "type": "address"
        },
        {
          "internalType": "address",
          "name": "_LINK_TOKEN_ADDRESS",
          "type": "address"
        },
        {
          "internalType": "string[]",
          "name": "_certificateArgs",
          "type": "string[]"
        },
        {
          "internalType": "address[]",
          "name": "_calculatorArgs",
          "type": "address[]"
        }
      ],
      "stateMutability": "nonpayable",
      "type": "constructor"
    },
    {
      "inputs": [
        {
          "internalType": "address",
          "name": "spender",
          "type": "address"
        },
        {
          "internalType": "uint256",
          "name": "allowance",
          "type": "uint256"
        },
        {
          "internalType": "uint256",
          "name": "needed",
          "type": "uint256"
        }
      ],
      "name": "ERC20InsufficientAllowance",
      "type": "error"
    },
    {
      "inputs": [
        {
          "internalType": "address",
          "name": "sender",
          "type": "address"
        },
        {
          "internalType": "uint256",
          "name": "balance",
          "type": "uint256"
        },
        {
          "internalType": "uint256",
          "name": "needed",
          "type": "uint256"
        }
      ],
      "name": "ERC20InsufficientBalance",
      "type": "error"
    },
    {
      "inputs": [
        {
          "internalType": "address",
          "name": "approver",
          "type": "address"
        }
      ],
      "name": "ERC20InvalidApprover",
      "type": "error"
    },
    {
      "inputs": [
        {
          "internalType": "address",
          "name": "receiver",
          "type": "address"
        }
      ],
      "name": "ERC20InvalidReceiver",
      "type": "error"
    },
    {
      "inputs": [
        {
          "internalType": "address",
          "name": "sender",
          "type": "address"
        }
      ],
      "name": "ERC20InvalidSender",
      "type": "error"
    },
    {
      "inputs": [
        {
          "internalType": "address",
          "name": "spender",
          "type": "address"
        }
      ],
      "name": "ERC20InvalidSpender",
      "type": "error"
    },
    {
      "inputs": [
        {
          "internalType": "address",
          "name": "owner",
          "type": "address"
        }
      ],
      "name": "OwnableInvalidOwner",
      "type": "error"
    },
    {
      "inputs": [
        {
          "internalType": "address",
          "name": "account",
          "type": "address"
        }
      ],
      "name": "OwnableUnauthorizedAccount",
      "type": "error"
    },
    {
      "inputs": [
        {
          "internalType": "uint256",
          "name": "value",
          "type": "uint256"
        },
        {
          "internalType": "uint256",
          "name": "length",
          "type": "uint256"
        }
      ],
      "name": "StringsInsufficientHexLength",
      "type": "error"
    },
    {
      "anonymous": false,
      "inputs": [
        {
          "indexed": true,
          "internalType": "address",
          "name": "owner",
          "type": "address"
        },
        {
          "indexed": true,
          "internalType": "address",
          "name": "spender",
          "type": "address"
        },
        {
          "indexed": false,
          "internalType": "uint256",
          "name": "value",
          "type": "uint256"
        }
      ],
      "name": "Approval",
      "type": "event"
    },
    {
      "anonymous": false,
      "inputs": [
        {
          "indexed": true,
          "internalType": "address",
          "name": "buyer",
          "type": "address"
        },
        {
          "indexed": false,
          "internalType": "uint256",
          "name": "amount",
          "type": "uint256"
        }
      ],
      "name": "BougthCarbonCredits",
      "type": "event"
    },
    {
      "anonymous": false,
      "inputs": [
        {
          "indexed": true,
          "internalType": "address",
          "name": "previousOwner",
          "type": "address"
        },
        {
          "indexed": true,
          "internalType": "address",
          "name": "newOwner",
          "type": "address"
        }
      ],
      "name": "OwnershipTransferred",
      "type": "event"
    },
    {
      "anonymous": false,
      "inputs": [
        {
          "indexed": true,
          "internalType": "address",
          "name": "buyer",
          "type": "address"
        },
        {
          "indexed": false,
          "internalType": "uint256",
          "name": "amount",
          "type": "uint256"
        },
        {
          "indexed": false,
          "internalType": "uint256",
          "name": "certificateId",
          "type": "uint256"
        }
      ],
      "name": "RetiredCarbonCredits",
      "type": "event"
    },
    {
      "anonymous": false,
      "inputs": [
        {
          "indexed": true,
          "internalType": "address",
          "name": "from",
          "type": "address"
        },
        {
          "indexed": true,
          "internalType": "address",
          "name": "to",
          "type": "address"
        },
        {
          "indexed": false,
          "internalType": "uint256",
          "name": "value",
          "type": "uint256"
        }
      ],
      "name": "Transfer",
      "type": "event"
    },
    {
      "inputs": [],
      "name": "CARBON_CALCULATOR_ADDRESS",
      "outputs": [
        {
          "internalType": "address",
          "name": "",
          "type": "address"
        }
      ],
      "stateMutability": "view",
      "type": "function"
    },
    {
      "inputs": [],
      "name": "CARBON_CERTIFICATE_ADDRESS",
      "outputs": [
        {
          "internalType": "address",
          "name": "",
          "type": "address"
        }
      ],
      "stateMutability": "view",
      "type": "function"
    },
    {
      "inputs": [],
      "name": "EPNS_COMM_ADDRESS",
      "outputs": [
        {
          "internalType": "address",
          "name": "",
          "type": "address"
        }
      ],
      "stateMutability": "view",
      "type": "function"
    },
    {
      "inputs": [],
      "name": "LINK_TOKEN_ADDRESS",
      "outputs": [
        {
          "internalType": "address",
          "name": "",
          "type": "address"
        }
      ],
      "stateMutability": "view",
      "type": "function"
    },
    {
      "inputs": [],
      "name": "TCO2FaucetExtense",
      "outputs": [
        {
          "internalType": "contract ITCO2Faucet",
          "name": "",
          "type": "address"
        }
      ],
      "stateMutability": "view",
      "type": "function"
    },
    {
      "inputs": [],
      "name": "TCO2TokenExtense",
      "outputs": [
        {
          "internalType": "contract ITCO2Token",
          "name": "",
          "type": "address"
        }
      ],
      "stateMutability": "view",
      "type": "function"
    },
    {
      "inputs": [],
      "name": "TCO2TokensInContract",
      "outputs": [
        {
          "internalType": "uint256",
          "name": "",
          "type": "uint256"
        }
      ],
      "stateMutability": "view",
      "type": "function"
    },
    {
      "inputs": [
        {
          "internalType": "address",
          "name": "owner",
          "type": "address"
        },
        {
          "internalType": "address",
          "name": "spender",
          "type": "address"
        }
      ],
      "name": "allowance",
      "outputs": [
        {
          "internalType": "uint256",
          "name": "",
          "type": "uint256"
        }
      ],
      "stateMutability": "view",
      "type": "function"
    },
    {
      "inputs": [
        {
          "internalType": "address",
          "name": "spender",
          "type": "address"
        },
        {
          "internalType": "uint256",
          "name": "value",
          "type": "uint256"
        }
      ],
      "name": "approve",
      "outputs": [
        {
          "internalType": "bool",
          "name": "",
          "type": "bool"
        }
      ],
      "stateMutability": "nonpayable",
      "type": "function"
    },
    {
      "inputs": [
        {
          "internalType": "address",
          "name": "account",
          "type": "address"
        }
      ],
      "name": "balanceOf",
      "outputs": [
        {
          "internalType": "uint256",
          "name": "",
          "type": "uint256"
        }
      ],
      "stateMutability": "view",
      "type": "function"
    },
    {
      "inputs": [
        {
          "internalType": "uint256",
          "name": "value",
          "type": "uint256"
        }
      ],
      "name": "burn",
      "outputs": [],
      "stateMutability": "nonpayable",
      "type": "function"
    },
    {
      "inputs": [
        {
          "internalType": "address",
          "name": "account",
          "type": "address"
        },
        {
          "internalType": "uint256",
          "name": "value",
          "type": "uint256"
        }
      ],
      "name": "burnFrom",
      "outputs": [],
      "stateMutability": "nonpayable",
      "type": "function"
    },
    {
      "inputs": [
        {
          "internalType": "address",
          "name": "_buyer",
          "type": "address"
        },
        {
          "internalType": "uint256",
          "name": "_amount",
          "type": "uint256"
        }
      ],
      "name": "buyCarbonCredits",
      "outputs": [],
      "stateMutability": "nonpayable",
      "type": "function"
    },
    {
      "inputs": [
        {
          "internalType": "string",
          "name": "_source",
          "type": "string"
        },
        {
          "internalType": "bytes",
          "name": "_encryptedSecretsUrls",
          "type": "bytes"
        },
        {
          "internalType": "uint8",
          "name": "_donHostedSecretsSlotID",
          "type": "uint8"
        },
        {
          "internalType": "uint64",
          "name": "_donHostedSecretsVersion",
          "type": "uint64"
        },
        {
          "internalType": "string[]",
          "name": "_args",
          "type": "string[]"
        },
        {
          "internalType": "bytes[]",
          "name": "_bytesArgs",
          "type": "bytes[]"
        },
        {
          "internalType": "uint64",
          "name": "_subscriptionId",
          "type": "uint64"
        },
        {
          "internalType": "uint32",
          "name": "_gasLimit",
          "type": "uint32"
        },
        {
          "internalType": "bytes32",
          "name": "_jobId",
          "type": "bytes32"
        }
      ],
      "name": "calculateTravelFootprint",
      "outputs": [
        {
          "components": [
            {
              "internalType": "uint256",
              "name": "distance",
              "type": "uint256"
            },
            {
              "internalType": "uint256",
              "name": "nights",
              "type": "uint256"
            },
            {
              "internalType": "uint256",
              "name": "total",
              "type": "uint256"
            }
          ],
          "internalType": "struct Carbon.Travel",
          "name": "carbonFootprintTravel",
          "type": "tuple"
        }
      ],
      "stateMutability": "nonpayable",
      "type": "function"
    },
    {
      "inputs": [],
      "name": "carbonTokensMinted",
      "outputs": [
        {
          "internalType": "uint256",
          "name": "",
          "type": "uint256"
        }
      ],
      "stateMutability": "view",
      "type": "function"
    },
    {
      "inputs": [],
      "name": "decimals",
      "outputs": [
        {
          "internalType": "uint8",
          "name": "",
          "type": "uint8"
        }
      ],
      "stateMutability": "view",
      "type": "function"
    },
    {
      "inputs": [],
      "name": "name",
      "outputs": [
        {
          "internalType": "string",
          "name": "",
          "type": "string"
        }
      ],
      "stateMutability": "view",
      "type": "function"
    },
    {
      "inputs": [],
      "name": "owner",
      "outputs": [
        {
          "internalType": "address",
          "name": "",
          "type": "address"
        }
      ],
      "stateMutability": "view",
      "type": "function"
    },
    {
      "inputs": [],
      "name": "renounceOwnership",
      "outputs": [],
      "stateMutability": "nonpayable",
      "type": "function"
    },
    {
      "inputs": [
        {
          "internalType": "address",
          "name": "_buyer",
          "type": "address"
        },
        {
          "internalType": "uint256",
          "name": "_amount",
          "type": "uint256"
        }
      ],
      "name": "retireCarbonCredits",
      "outputs": [],
      "stateMutability": "nonpayable",
      "type": "function"
    },
    {
      "inputs": [],
      "name": "symbol",
      "outputs": [
        {
          "internalType": "string",
          "name": "",
          "type": "string"
        }
      ],
      "stateMutability": "view",
      "type": "function"
    },
    {
      "inputs": [],
      "name": "totalSupply",
      "outputs": [
        {
          "internalType": "uint256",
          "name": "",
          "type": "uint256"
        }
      ],
      "stateMutability": "view",
      "type": "function"
    },
    {
      "inputs": [
        {
          "internalType": "address",
          "name": "to",
          "type": "address"
        },
        {
          "internalType": "uint256",
          "name": "amount",
          "type": "uint256"
        }
      ],
      "name": "transfer",
      "outputs": [
        {
          "internalType": "bool",
          "name": "",
          "type": "bool"
        }
      ],
      "stateMutability": "nonpayable",
      "type": "function"
    },
    {
      "inputs": [
        {
          "internalType": "address",
          "name": "from",
          "type": "address"
        },
        {
          "internalType": "address",
          "name": "to",
          "type": "address"
        },
        {
          "internalType": "uint256",
          "name": "amount",
          "type": "uint256"
        }
      ],
      "name": "transferFrom",
      "outputs": [
        {
          "internalType": "bool",
          "name": "",
          "type": "bool"
        }
      ],
      "stateMutability": "nonpayable",
      "type": "function"
    },
    {
      "inputs": [
        {
          "internalType": "address",
          "name": "newOwner",
          "type": "address"
        }
      ],
      "name": "transferOwnership",
      "outputs": [],
      "stateMutability": "nonpayable",
      "type": "function"
    },
    {
      "inputs": [],
      "name": "withdrawFunds",
      "outputs": [],
      "stateMutability": "nonpayable",
      "type": "function"
    },
    {
      "inputs": [],
      "name": "withdrawTCO2Tokens",
      "outputs": [],
      "stateMutability": "nonpayable",
      "type": "function"
    },
    {
      "stateMutability": "payable",
      "type": "receive"
    }
  ],
  "transactionHash": "0x8f60a1594b219e1d1f018ff1cc51c732b5039d21d5af95e189ce9b2dce8ecaf9",
  "args": [
    "0x996b39698CF96A70B7a7005B5d1924a66C5E8f0e",
    "0xa5831eb637dff307395b5183c86B04c69C518681",
    "0xb3971BCef2D791bc4027BbfedFb47319A4AAaaAa",
    "0x326C977E6efc84E512bB9C30f76E30c160eD06FB",
    [
      "Certificate",
      "CERT",
      "https://api.carbon.fyi/certificate/"
    ],
    [
      "0x6E2dc0F9DB014aE19888F539E59285D2Ea04244C"
    ]
  ],
  "numDeployments": 7,
  "solcInputHash": "e866b7640ca9fe46bb5dc64239443654",
  "bytecode": "0x6080604052346200046857620058bd8038038091620000208260806200088d565b60803960c081126200046857620000386080620008b1565b906200004560a0620008b1565b916200005260c0620008b1565b916200005f60e0620008b1565b6101005192906001600160401b038411620004685760808301609f85011215620004685783608001516200009381620008c6565b94620000a360405196876200088d565b818652602086016080860160a0600585901b84010111620004685760a08201905b60a0600585901b8401018210620007cc575050610120519150506001600160401b03811162000468576080019280608001601f85011215620004685783516200010d81620008c6565b946200011d60405196876200088d565b81865260208087019260051b8201019260800183116200046857602001905b828210620007b157505050604051620001558162000871565b600681526531b0b93137b760d11b602082015260405190620001778262000871565b600682526521a0a92127a760d11b60208301528051906001600160401b038211620004825760035490600182811c92168015620007a6575b6020831014620006785781601f84931162000734575b50602090601f8311600114620006a55760009262000699575b50508160011b916000199060031b1c1916176003555b8051906001600160401b038211620004825760045490600182811c921680156200068e575b6020831014620006785781601f84931162000606575b50602090601f831160011462000577576000926200056b575b50508160011b916000199060031b1c1916176004555b331562000552576005549560018060a01b031995338789161760055560405160018060a01b0398893391167f8be0079c531659141344cd1fd0a4f28419497f9722a3daafe3b4186f6b6457e0600080a360038751036200050157506001855103620004ae5787809492818094168960065416176006551687600754161760075516856008541617600855169182846009541617600955620002ff8162000903565b519080516001101562000498576040810151908051600210156200049857606001516040519261123a91828501916001600160401b0383118684101762000482578594620003656200037492620003839662004683893960608652606086019062000911565b90848203602086015262000911565b91604081840391015262000911565b03906000f090811562000476576200039c859162000903565b5160405191166121df8083016001600160401b0381118482101762000482576020928492620024a4843981520301906000f09283156200047657846020946000966044941683600a541617600a55168091600b541617600b55604051948593849263095ea7b360e01b84526004840152811960248401525af18015620004765762000432575b604051611b6b9081620009398239f35b6020813d6020116200046d575b816200044e602093836200088d565b810103126200046857518015150362000468573862000422565b600080fd5b3d91506200043f565b6040513d6000823e3d90fd5b634e487b7160e01b600052604160045260246000fd5b634e487b7160e01b600052603260045260246000fd5b60405162461bcd60e51b815260206004820152602560248201527f5f63616c63756c61746f72417267732073686f756c64206265206f66206c656e604482015264677468203160d81b6064820152608490fd5b62461bcd60e51b815260206004820152602660248201527f5f6365727469666963617465417267732073686f756c64206265206f66206c656044820152656e677468203360d01b6064820152608490fd5b604051631e4fbdf760e01b815260006004820152602490fd5b01519050388062000248565b6004600090815293507f8a35acfbc15ff81a39ae7d344fd709f28e8600b4aa8c65c6b64bfe7fe36bd19b91905b601f1984168510620005ea576001945083601f19811610620005d0575b505050811b016004556200025e565b015160001960f88460031b161c19169055388080620005c1565b81810151835560209485019460019093019290910190620005a4565b60046000529091507f8a35acfbc15ff81a39ae7d344fd709f28e8600b4aa8c65c6b64bfe7fe36bd19b601f840160051c81016020851062000670575b90849392915b601f830160051c82018110620006605750506200022f565b6000815585945060010162000648565b508062000642565b634e487b7160e01b600052602260045260246000fd5b91607f169162000219565b015190503880620001de565b6003600090815293507fc2575a0e9e593c00f959f8c92f12db2869c3395a3b0502d05e2516446f71f85b91905b601f198416851062000718576001945083601f19811610620006fe575b505050811b01600355620001f4565b015160001960f88460031b161c19169055388080620006ef565b81810151835560209485019460019093019290910190620006d2565b60036000529091507fc2575a0e9e593c00f959f8c92f12db2869c3395a3b0502d05e2516446f71f85b601f840160051c8101602085106200079e575b90849392915b601f830160051c820181106200078e575050620001c5565b6000815585945060010162000776565b508062000770565b91607f1691620001af565b60208091620007c084620008b1565b8152019101906200013c565b81516001600160401b03811162000468576080880160bf858301011215620004685760a084820101516001600160401b0381116200085c57604051926200081e601f8301601f1916602001856200088d565b81845260808a0160c0878501840101116200046857602093849384936200084e91838601908a0160c001620008de565b8152019201919050620000c4565b60246000634e487b7160e01b81526041600452fd5b604081019081106001600160401b038211176200048257604052565b601f909101601f19168101906001600160401b038211908210176200048257604052565b51906001600160a01b03821682036200046857565b6001600160401b038111620004825760051b60200190565b60005b838110620008f25750506000910152565b8181015183820152602001620008e1565b805115620004985760200190565b906020916200092c81518092818552858086019101620008de565b601f01601f191601019056fe608080604052600436101561001d575b50361561001b57600080fd5b005b600090813560e01c90816302598e0a146113d85750806306fdde0314611316578063095ea7b31461126357806318160ddd1461124557806322a0bb6b1461121c57806323b872dd146111dd57806324600fc314611188578063313ce5671461116c57806342966c681461114e57806348a3b4a4146111255780634da2d12a146110fc57806370a08231146110c4578063715018a61461106757806379cc6790146110365780637f0924841461100d5780638a5b44b314610ef55780638da5cb5b14610ecc57806391a89a2914610ea357806395d89b4114610d92578063a9059cbb14610c2e578063abc3e88b14610865578063c37964bd14610847578063d8f1d72414610829578063dd62ed3e146107de578063ded7c1301461037b578063e75ad115146101e05763f2fde38b0361000f57346101dd5760203660031901126101dd57610168611445565b610170611554565b6001600160a01b039081169081156101c457600554826bffffffffffffffffffffffff60a01b821617600555167f8be0079c531659141344cd1fd0a4f28419497f9722a3daafe3b4186f6b6457e08380a380f35b604051631e4fbdf760e01b815260048101849052602490fd5b80fd5b50346101dd5760403660031901126101dd576101fa611445565b60243590610206611554565b61021182151561172e565b61021d82600d54611638565b600c548181106102da575b50506001600160a01b03169081156102c15760208161026a7fa46287cd6870c6d05612bb95b96833337e1e8a0ccea8be539c860dee7ac5f6e193600254611638565b6002558385528482526040852081815401905583857fddf252ad1be2c89b69c2b068fc378daa952ba7f163c4a11628f55a4df523b3ef84604051858152a36102b481600d54611638565b600d55604051908152a280f35b60405163ec442f0560e01b815260048101849052602490fd5b6102e39161177a565b60065460075485916001600160a01b039182169116803b156103775760405163f3fef3a360e01b81526001600160a01b039290921660048301526024820184905282908290604490829084905af1801561036c57610354575b505061034a90600c54611638565b600c553880610228565b61035d90611476565b61036857833861033c565b8380fd5b6040513d84823e3d90fd5b8280fd5b50346101dd576101203660031901126101dd576004356001600160401b0381116106a6576103ad9036906004016114f6565b6024356001600160401b038111610377576103cc9036906004016114f6565b60443560ff81168103610368576064356001600160401b03811681036107da576084356001600160401b0381116107d657366023820112156107d65780600401356104168161153d565b9161042460405193846114ba565b818352602083019160051b81016024018236821161075e5760248301905b8282106107a357505050506001600160401b0360a4351161079f5736602360a43501121561079f5760a435600401359361047b8561153d565b9061048960405192836114ba565b8582526020820180963660248260051b60a43501011161079b57602460a43501915b60248260051b60a435010183106107625750505060c435936001600160401b038516850361075e578960e4359663ffffffff881688036106a657916001600160401b03610124979593836040809e9c9997959e516105088161149f565b828152826020820152015261051b611554565b60ff61056160018060a01b03600b54169d61054f6040519e8f9d8e6352a81eeb60e01b815261012060048201520190611420565b8c81036003190160248e015290611420565b941660448a015216606488015260031987830301608488015251808252602082019160208260051b82010194928c915b8383106107255750505050506003198583030160a486015251808252602082019160208260051b82010194928a915b8383106106f05750505050509063ffffffff6020946001600160401b0385941660c48501521660e4830152610104803590830152038186865af180156106e55783906106b2575b6060915060246040518094819363e3e784a560e01b835260048301525afa801561036c5782918390849261066a575b5060609350604080516106488161149f565b8481526020810192835201918252604051928352516020830152516040820152f35b925050506060813d82116106aa575b81610686606093836114ba565b810103126106a65760609150805160406020830151920151909184610636565b5080fd5b3d9150610679565b506020813d6020116106dd575b816106cc602093836114ba565b810103126103775760609051610607565b3d91506106bf565b6040513d85823e3d90fd5b9193979650919394602080610711600193601f198682030187528b51611420565b9901930193019092889697959492936105c0565b91939697999850919394602080610748600193601f198682030187528a51611420565b98019301930190928a9899979695949293610591565b8980fd5b8235906001600160401b038211610797576020809161078a60249485369160a43501016114f6565b81520193019290506104ab565b8c80fd5b8a80fd5b8680fd5b81356001600160401b0381116107d2576020916107c78392602436918901016114f6565b815201910190610442565b8b80fd5b8580fd5b8480fd5b50346101dd5760403660031901126101dd5760406020916107fd611445565b610805611460565b6001600160a01b039182168352600185528383209116825283522054604051908152f35b50346101dd57806003193601126101dd576020600c54604051908152f35b50346101dd57806003193601126101dd576020600d54604051908152f35b50346101dd5760403660031901126101dd5761087f611445565b60243561088a611554565b61089581151561172e565b60018060a01b03908183169283855260209085825260408620548311610be957600c54869190848110610b1757508460075416803b1561037757828091602460405180948193633790cf5760e01b83528a60048401525af19081156106e5578391610b03575b505061090984600c5461177a565b600c555b61091984600d5461177a565b600d556109268433611580565b600a54604051632851206560e21b81526001600160a01b0383166004820152602481018690529590849087906044908290879086165af19586156106e5578396610ad4575b506008541690610984670de0b6b3a764000086046117c6565b610a4f60706040518093600360fc1b89830152602b60f81b806021840152603360f81b602284015280602384015268436f6e67726174732160b81b6024840152602d8301527f596f75206a75737420726563656976656420616e206f66667365742063657274602e83015268034b334b1b0ba3290960bd1b604e8301526f02cb7bab91037b33339b2ba103bb0b9960851b6057830152610a2d815180928b6067860191016113fd565b81016820434f3220546f6e7360b81b60678201520360508101845201826114ba565b823b1561036857610a799284928360405180968195829463ba3d69d760e01b845260048401611787565b03925af1801561036c57610abc575b5050907fd01c6570076b5796ea5b39d13cb939955b5d2ec43f5ba7ee52e6cd5613823aad926040928351928352820152a280f35b610ac890939293611476565b6107da57908438610a88565b9095508381813d8311610afc575b610aec81836114ba565b810103126103775751943861096b565b503d610ae2565b610b0c90611476565b6106a65781386108fb565b610b239192508461177a565b86856006541691866007541692803b156103775760405163f3fef3a360e01b81526001600160a01b0394909416600485015260248401919091528290604490829084905af18015610bde57610bcb575b5085908460075416803b1561037757828091602460405180948193633790cf5760e01b83528a60048401525af19081156106e5578391610bb7575b50600c5561090d565b610bc090611476565b6106a6578138610bae565b610bd790969196611476565b9438610b73565b6040513d89823e3d90fd5b60405162461bcd60e51b815260048101839052601a60248201527f496e73756666696369656e7420434152424f4e20746f6b656e730000000000006044820152606490fd5b50346101dd5760403660031901126101dd57610c48611445565b9060243591610c5883823361196c565b6008546001600160a01b031690610d30604a610c86670de0b6b3a7640000610c7f33611a31565b97046117c6565b95604051968791600360fc1b6020840152602b60f81b806021850152603360f81b602285015280602385015268436f6e67726174732160b81b6024850152602d840152610cdd815180926020602e870191016113fd565b82016c0103a3930b739b332b93932b21609d1b602e820152610d09825180936020603b850191016113fd565b016e20434152424f4e20746f20796f752160881b603b82015203602a8101875201856114ba565b813b1561037757928291610d5b948360405180978195829463ba3d69d760e01b845260048401611787565b03925af1908115610d865750610d77575b602060405160018152f35b610d8090611476565b38610d6c565b604051903d90823e3d90fd5b50346101dd57806003193601126101dd57604051908060045491600183811c92818516948515610e99575b6020958686108114610e8557858852879493929187908215610e63575050600114610e09575b5050610df1925003836114ba565b610e05604051928284938452830190611420565b0390f35b90859250600482527f8a35acfbc15ff81a39ae7d344fd709f28e8600b4aa8c65c6b64bfe7fe36bd19b5b858310610e4b575050610df193508201013880610de3565b80548389018501528794508693909201918101610e33565b9250935050610df194915060ff191682840152151560051b8201013880610de3565b634e487b7160e01b83526022600452602483fd5b93607f1693610dbd565b50346101dd57806003193601126101dd576006546040516001600160a01b039091168152602090f35b50346101dd57806003193601126101dd576005546040516001600160a01b039091168152602090f35b50346101dd57806003193601126101dd57610f0e611554565b6007546040516370a0823160e01b81523060048201528291602091906001600160a01b03168282602481845afa80156110025783928591610fca575b5060405163a9059cbb60e01b8152336004820152602481019190915293849190829081604481015b03925af19081156106e5578391610f91575b83610f8e8361192e565b80f35b905081813d8311610fc3575b610fa781836114ba565b810103126106a6575180151581036106a657610f8e9038610f84565b503d610f9d565b8381939492503d8311610ffb575b610fe281836114ba565b81010312610ff65751829190610f72610f4a565b505050fd5b503d610fd8565b6040513d86823e3d90fd5b50346101dd57806003193601126101dd57600a546040516001600160a01b039091168152602090f35b50346101dd5760403660031901126101dd57610f8e611053611445565b6024359061106282338361165b565b611580565b50346101dd57806003193601126101dd57611080611554565b600580546001600160a01b0319811690915581906001600160a01b03167f8be0079c531659141344cd1fd0a4f28419497f9722a3daafe3b4186f6b6457e08280a380f35b50346101dd5760203660031901126101dd576020906040906001600160a01b036110ec611445565b1681528083522054604051908152f35b50346101dd57806003193601126101dd57600b546040516001600160a01b039091168152602090f35b50346101dd57806003193601126101dd576008546040516001600160a01b039091168152602090f35b50346101dd5760203660031901126101dd57610f8e60043533611580565b50346101dd57806003193601126101dd57602060405160128152f35b50346101dd57806003193601126101dd576111a1611554565b610f8e8180808047335af13d156111d8573d6111bc816114db565b906111ca60405192836114ba565b81528360203d92013e61192e565b61192e565b50346101dd5760603660031901126101dd57610c58906111fb611445565b611203611460565b92839160443594859161121783338361165b565b61196c565b50346101dd57806003193601126101dd576007546040516001600160a01b039091168152602090f35b50346101dd57806003193601126101dd576020600254604051908152f35b50346101dd5760403660031901126101dd5761127d611445565b6024359033156112fd576001600160a01b03169182156112e55760408291338152600160205281812085825260205220556040519081527f8c5be1e5ebec7d5bd14f71427d1e84f3dd0314c0f7b2291e5b200ac8c7c3b92560203392a3602060405160018152f35b60249060405190634a1406b160e11b82526004820152fd5b60405163e602df0560e01b815260048101849052602490fd5b50346101dd57806003193601126101dd57604051908060035491600183811c928185169485156113ce575b6020958686108114610e8557858852879493929187908215610e63575050600114611374575050610df1925003836114ba565b90859250600382527fc2575a0e9e593c00f959f8c92f12db2869c3395a3b0502d05e2516446f71f85b5b8583106113b6575050610df193508201013880610de3565b8054838901850152879450869390920191810161139e565b93607f1693611341565b9050346106a657816003193601126106a6576009546001600160a01b03168152602090f35b60005b8381106114105750506000910152565b8181015183820152602001611400565b90602091611439815180928185528580860191016113fd565b601f01601f1916010190565b600435906001600160a01b038216820361145b57565b600080fd5b602435906001600160a01b038216820361145b57565b6001600160401b03811161148957604052565b634e487b7160e01b600052604160045260246000fd5b606081019081106001600160401b0382111761148957604052565b90601f801991011681019081106001600160401b0382111761148957604052565b6001600160401b03811161148957601f01601f191660200190565b81601f8201121561145b5780359061150d826114db565b9261151b60405194856114ba565b8284526020838301011161145b57816000926020809301838601378301015290565b6001600160401b0381116114895760051b60200190565b6005546001600160a01b0316330361156857565b60405163118cdaa760e01b8152336004820152602490fd5b906001600160a01b03821690811561161f57600092828452836020526040842054908282106115ed5750817fddf252ad1be2c89b69c2b068fc378daa952ba7f163c4a11628f55a4df523b3ef926020928587528684520360408620558060025403600255604051908152a3565b60405163391434e360e21b81526001600160a01b03919091166004820152602481019190915260448101829052606490fd5b604051634b637e8f60e11b815260006004820152602490fd5b9190820180921161164557565b634e487b7160e01b600052601160045260246000fd5b9160018060a01b03809316916000938385526001602052604093848620918316918287526020528486205492600019840361169a575b50505050505050565b8484106116fe575080156116e65781156116ce57855260016020528385209085526020520391205538808080808080611691565b8451634a1406b160e11b815260048101879052602490fd5b845163e602df0560e01b815260048101879052602490fd5b8551637dc7a0d960e11b81526001600160a01b039190911660048201526024810184905260448101859052606490fd5b1561173557565b60405162461bcd60e51b815260206004820152601f60248201527f416d6f756e742073686f756c642062652067726561746572207468616e2030006044820152606490fd5b9190820391821161164557565b73aa7880db88d8e051428b5204817e58d8327340de81526001600160a01b0390911660208201526060604082018190526117c392910190611420565b90565b806000917a184f03e93ff9f4daa797ed6e38ed64bf6a1f01000000000000000080821015611920575b506d04ee2d6d415b85acef810000000080831015611911575b50662386f26fc1000080831015611902575b506305f5e100808310156118f3575b50612710808310156118e4575b5060648210156118d4575b600a809210156118ca575b6001908160218186019561185f876114db565b9661186d60405198896114ba565b80885261187c601f19916114db565b01366020890137860101905b611894575b5050505090565b600019019083906f181899199a1a9b1b9c1cb0b131b232b360811b8282061a8353049182156118c557919082611888565b61188d565b916001019161184c565b9190606460029104910191611841565b60049193920491019138611836565b60089193920491019138611829565b6010919392049101913861181a565b60209193920491019138611808565b6040935081049150386117ef565b1561193557565b60405162461bcd60e51b815260206004820152600f60248201526e151c985b9cd9995c8819985a5b1959608a1b6044820152606490fd5b916001600160a01b0380841692831561161f5716928315611a1857600090838252816020526040822054908382106119e6575091604082827fddf252ad1be2c89b69c2b068fc378daa952ba7f163c4a11628f55a4df523b3ef958760209652828652038282205586815220818154019055604051908152a3565b60405163391434e360e21b81526001600160a01b03919091166004820152602481019190915260448101839052606490fd5b60405163ec442f0560e01b815260006004820152602490fd5b604051906001600160a01b031680611a488361149f565b602a835260208084016040368237845115611b1f5760309053835190600191821015611b1f5790607860218601536029915b818311611aab57505050611a8c575090565b6044906040519063e22e27eb60e01b8252600482015260146024820152fd5b909192600f81166010811015611b0a578651851015611b0a576f181899199a1a9b1b9c1cb0b131b232b360811b901a86850183015360041c928015611af557600019019190611a7a565b60246000634e487b7160e01b81526011600452fd5b60246000634e487b7160e01b81526032600452fd5b634e487b7160e01b600052603260045260246000fdfea2646970667358221220ea96270c9ebb181ce3cc642cc27ede41ff7a255123fb2705c50fa205de740eb664736f6c6343000814003360a0346100d057601f6121df38819003918201601f19168301916001600160401b038311848410176100d5578084926020946040528339810103126100d057516001600160a01b038116908190036100d057608052331561008b57600080546001600160a01b031916331790556040516120f390816100ec823960805181818161010a0152610b0d0152f35b60405162461bcd60e51b815260206004820152601860248201527f43616e6e6f7420736574206f776e657220746f207a65726f00000000000000006044820152606490fd5b600080fd5b634e487b7160e01b600052604160045260246000fdfe608060405260048036101561001357600080fd5b6000803560e01c9182630ca76175146100bc57505080633944ea3a146100b75780634b0795a8146100b257806352a81eeb146100ad57806379ba5097146100a85780638da5cb5b146100a35780639681096f1461009e578063b1e2174914610099578063e3e784a5146100945763f2fde38b1461008f57600080fd5b6108b3565b610870565b610852565b6107df565b6107b6565b6106fa565b610637565b6104bc565b6103e9565b3461026b57606036600319011261026b578035906001600160401b03602435818111610267576100ef9036908401610300565b90604435908111610267576101079036908401610300565b917f00000000000000000000000000000000000000000000000000000000000000006001600160a01b031633036102585780549084820361023c57508161015c9161016194935190816101ba575b5050611d8d565b611e64565b807f7873807bf6ddc50401cd3d29bbe0decee23fd4d68d273f4b5eb83cded4d2f1726040518061019081611fcd565b0390a27f85e1543bf2f84fe80c6badbce3648c8539ad1df4d2b3d822938ca0538be727e68280a280f35b61021a6101d260206102359486010160208601610a9a565b916101db6102e1565b926ec097ce7bc90715b34b9f100000000081048452670de0b6b3a764000090818082040660208601520660408401526000526005602052604060002090565b90604060029180518455602081015160018501550151910155565b8680610155565b60405163d068bf5b60e01b815290810185815281906020010390fd5b60405163c6829f8360e01b8152fd5b8480fd5b5080fd5b634e487b7160e01b600052604160045260246000fd5b60e081019081106001600160401b038211176102a057604052565b61026f565b604081019081106001600160401b038211176102a057604052565b90601f801991011681019081106001600160401b038211176102a057604052565b60405190606082018281106001600160401b038211176102a057604052565b81601f82011215610356578035906001600160401b0382116102a05760405192610334601f8401601f1916602001856102c0565b8284526020838301011161035657816000926020809301838601378301015290565b600080fd5b90600182811c9216801561038b575b602083101461037557565b634e487b7160e01b600052602260045260246000fd5b91607f169161036a565b919082519283825260005b8481106103c1575050826000602080949584010152601f8019910116010190565b6020818301810151848301820152016103a0565b9060206103e6928181520190610395565b90565b34610356576000806003193601126104b957604051908060035461040c8161035b565b8085529160019180831690811561048f5750600114610446575b61044285610436818703826102c0565b604051918291826103d5565b0390f35b92506003835260008051602061209e8339815191525b82841061047757505050810160200161043682610442610426565b8054602085870181019190915290930192810161045c565b8695506104429693506020925061043694915060ff191682840152151560051b8201019293610426565b80fd5b34610356576000806003193601126104b95760405190806002546104df8161035b565b8085529160019180831690811561048f57506001146105085761044285610436818703826102c0565b92506002835260008051602061207e8339815191525b82841061053957505050810160200161043682610442610426565b8054602085870181019190915290930192810161051e565b6044359060ff8216820361035657565b606435906001600160401b038216820361035657565b60c435906001600160401b038216820361035657565b6001600160401b0381116102a05760051b60200190565b9080601f83011215610356578135906105bc8261058d565b926105ca60405194856102c0565b828452602092838086019160051b8301019280841161035657848301915b8483106105f85750505050505090565b82356001600160401b03811161035657869161061984848094890101610300565b8152019201916105e8565b60e4359063ffffffff8216820361035657565b3461035657610120366003190112610356576001600160401b0360043581811161035657610669903690600401610300565b9060243581811161035657610682903690600401610300565b9161068b610551565b92610694610561565b93608435848111610356576106ad9036906004016105a4565b9460a43594851161035657610442956106cd6106ea9636906004016105a4565b916106d6610577565b936106df610624565b9561010435976109c4565b6040519081529081906020820190565b34610356576000806003193601126104b9576001546001600160a01b0390811633036107785781546001600160a01b0316600080546001600160a01b0319163317905590600180546001600160a01b03191690553391167f8be0079c531659141344cd1fd0a4f28419497f9722a3daafe3b4186f6b6457e08380a380f35b60405162461bcd60e51b815260206004820152601660248201527526bab9ba10313290383937b837b9b2b21037bbb732b960511b6044820152606490fd5b34610356576000366003190112610356576000546040516001600160a01b039091168152602090f35b34610356576080366003190112610356576001600160401b0360043581811161035657610810903690600401610300565b906024359081168103610356576044359163ffffffff83168303610356576020926108469261083d610972565b60643592610ab5565b80600455604051908152f35b34610356576000366003190112610356576020600454604051908152f35b3461035657602036600319011261035657600435600052600560205260606040600020805490600260018201549101549060405192835260208301526040820152f35b34610356576020366003190112610356576004356001600160a01b03811690819003610356576108e1610972565b33811461092d57600180546001600160a01b031916821790556000546001600160a01b03167fed8889f560326eb138920d842192f0eb3dd22b4f139c87a2c57538e05bae1278600080a3005b60405162461bcd60e51b815260206004820152601760248201527f43616e6e6f74207472616e7366657220746f2073656c660000000000000000006044820152606490fd5b6000546001600160a01b0316330361098657565b60405162461bcd60e51b815260206004820152601660248201527527b7363c9031b0b63630b1363290313c9037bbb732b960511b6044820152606490fd5b9193610a4b989694610a46989692610a4195610a19604051966109e688610285565b60008852600060208901526000604089015260608089015260606080890152606060a0890152606060c089015287610efa565b815115610a715750610a2c915084610f23565b8051610a61575b508051610a51575b50610d27565b610ab5565b600455565b60045490565b610a5b9082610fea565b38610a3b565b610a6b9083610fcb565b38610a33565b90506001600160401b038116610a89575b5050610a2c565b610a939185610f49565b3880610a82565b90816020910312610356575190565b6040513d6000823e3d90fd5b92906020926001600160401b039263ffffffff610af4604051978896879663230e93b160e11b885216600487015260a0602487015260a4860190610395565b60016044860152921660648401526084830152038160007f00000000000000000000000000000000000000000000000000000000000000006001600160a01b03165af1908115610b9e57600091610b70575b50807f1131472297a800fee664d1d89cfa8f7676ff07189ecc53f80bbb5f4969099db8600080a290565b610b91915060203d8111610b97575b610b8981836102c0565b810190610a9a565b38610b46565b503d610b7f565b610aa9565b60405190610bb0826102a5565b600c82526b31b7b232a637b1b0ba34b7b760a11b6020830152565b634e487b7160e01b600052602160045260246000fd5b60031115610beb57565b610bcb565b60405190610bfd826102a5565b60088252676c616e677561676560c01b6020830152565b60011115610beb57565b60405190610c2b826102a5565b6006825265736f7572636560d01b6020830152565b60405190610c4d826102a5565b60048252636172677360e01b6020830152565b634e487b7160e01b600052601160045260246000fd5b6000198114610c855760010190565b610c60565b8051821015610c9e5760209160051b010190565b634e487b7160e01b600052603260045260246000fd5b60405190610cc1826102a5565b600f82526e39b2b1b932ba39a637b1b0ba34b7b760891b6020830152565b60405190610cec826102a5565b60078252667365637265747360c81b6020830152565b60405190610d0f826102a5565b600982526862797465734172677360b81b6020830152565b610d2f611011565b90610d41610d3b610ba3565b836118ff565b610d5e8151610d4f81610be1565b610d5881610be1565b836110dd565b610d69610d3b610bf0565b610d836040820151610d7a81610c14565b610d5881610c14565b610d8e610d3b610c1e565b610d9c6060820151836118ff565b60a08101805151610ea1575b506080810190815151610e21575b60c0915001805151610dc9575b50515190565b91610dd5610d3b610d02565b610dde82611983565b60005b83518051821015610e0e5790610e04610dfd82610e0994610c8a565b518561184a565b610c76565b610de1565b50509150610e1b81611a0f565b38610dc3565b602081018051610e3081610be1565b610e3981610be1565b15610e8f5760c092610e72610e8a92610e59610e53610cb4565b886118ff565b51610e6381610be1565b610e6c81610be1565b866110dd565b610e83610e7d610cdf565b866118ff565b518461184a565b610db6565b60405163a80d31f760e01b8152600490fd5b92610eb3610ead610c40565b846118ff565b610ebc83611983565b60005b84518051821015610ee75790610e04610edb82610ee294610c8a565b51866118ff565b610ebf565b50509250610ef482611a0f565b38610da8565b815115610f11576000808252604082015260600152565b6040516322ce3edd60e01b8152600490fd5b815115610f37576001602082015260800152565b60405163e889636f60e01b8152600490fd5b9190610fbd608092610f8e60ff610f5e611011565b94610f87604051610f6e816102a5565b60068152651cdb1bdd125160d21b6020820152876118ff565b1684611a9c565b610fb7604051610f9d816102a5565b60078152663b32b939b4b7b760c91b6020820152846118ff565b82611a9c565b600260208401525151910152565b815115610fd85760a00152565b60405163fe936cb760e01b8152600490fd5b815115610fd85760c00152565b60405190611004826102a5565b6000602083606081520152565b60405161101d816102a5565b611025610ff7565b8082526020820160008152611038610ff7565b506101006020830152604051809252600082526101208201918210610356576000916040525290565b601f19810191908211610c8557565b9060208201809211610c8557565b91908201809211610c8557565b90611094610ff7565b50601f8116806110c3575b50806020830152604051908183526000825281016020019081106103565760405290565b60200360208111610c85578101809111610c85573861109f565b908151916110e9610ff7565b508251516001810190818111610c85576020850151811015611144575b60c2602061113a965192830101538051821161113c575b505060405191602083015260208252611135826102a5565b61184a565b565b52388061111d565b8160011b9482860460021483151715610c855760208161117661113a9861116f60c29551918461108b565b5082611792565b5096505050611106565b908160011b9180830460021490151715610c8557565b61119e610ff7565b508051516001810190818111610c855760208301518110156111d7575b605b602084519283010153805182116111d357505090565b5290565b8160011b82810460021483151715610c8557611200906111f98551918661108b565b5084611792565b506111bb565b61120e610ff7565b508051516001810190818111610c85576020830151811015611243575b605a602084519283010153805182116111d357505090565b8160011b82810460021483151715610c8557611265906111f98551918661108b565b5061122b565b611273610ff7565b508051516001810190818111610c855760208301518110156112a8575b6059602084519283010153805182116111d357505090565b8160011b82810460021483151715610c85576112ca906111f98551918661108b565b50611290565b6112d8610ff7565b508051516001810190818111610c8557602083015181101561130d575b6058602084519283010153805182116111d357505090565b8160011b82810460021483151715610c855761132f906111f98551918661108b565b506112f5565b61133d610ff7565b508051516001810190818111610c85576020830151811015611372575b607b602084519283010153805182116111d357505090565b8160011b82810460021483151715610c8557611394906111f98551918661108b565b5061135a565b6113a2610ff7565b508051516001810190818111610c855760208301518110156113d7575b607a602084519283010153805182116111d357505090565b8160011b82810460021483151715610c85576113f9906111f98551918661108b565b506113bf565b611407610ff7565b508051516001810190818111610c8557602083015181101561143c575b6079602084519283010153805182116111d357505090565b8160011b82810460021483151715610c855761145e906111f98551918661108b565b50611424565b61146c610ff7565b508051516001810190818111610c855760208301518110156114a1575b6078602084519283010153805182116111d357505090565b8160011b82810460021483151715610c85576114c3906111f98551918661108b565b50611489565b6114d1610ff7565b508051516001810190818111610c85576020830151811015611506575b601b602084519283010153805182116111d357505090565b8160011b82810460021483151715610c8557611528906111f98551918661108b565b506114ee565b611536610ff7565b508051516001810190818111610c8557602083015181101561156b575b601a602084519283010153805182116111d357505090565b8160011b82810460021483151715610c855761158d906111f98551918661108b565b50611553565b61159b610ff7565b508051516001810190818111610c855760208301518110156115d0575b6019602084519283010153805182116111d357505090565b8160011b82810460021483151715610c85576115f2906111f98551918661108b565b506115b8565b611600610ff7565b508051516001810190818111610c85576020830151811015611635575b6018602084519283010153805182116111d357505090565b8160011b82810460021483151715610c8557611657906111f98551918661108b565b5061161d565b90611666610ff7565b508151516001810191828211610c85576020840151821015611699575b602084519283010153805182116111d357505090565b8260011b83810460021484151715610c85576116c2906116bb8651918761108b565b5085611792565b50611683565b906116d58251918361108b565b506116de610ff7565b508051906116ea610ff7565b506116f88151831115611843565b82515192611706838561107e565b91602092828480940151821161177b575b5183815197820101968211611773575b505001915b8181101561174d5760001991036101000a0190811990511690825116179052565b919261176861176261176e9286518152611070565b94611070565b92611061565b61172c565b523880611727565b61178d61178783611180565b826116c8565b611717565b9061179b610ff7565b5080516117a6610ff7565b506117b48251821115611843565b825151916117c2828461107e565b602091829182870151811161182c575b865183815197820101968211611824575b505001915b8181101561180a5760001991036101000a019081199051169082511617905290565b919261176861176261181f9286518152611070565b6117e8565b5238806117e3565b61183e61183882611180565b886116c8565b6117d2565b1561035657565b81516118819291906001600160401b0381169060178211611884576118799150604060ff84519216179061165d565b505b51611792565b50565b5060ff81116118a9576118a39061189b83516112d0565b508251611c69565b5061187b565b61ffff81116118c8576118a3906118c0835161126b565b508251611c02565b63ffffffff81116118e9576118a3906118e18351611206565b508251611b99565b6118a3906118f78351611196565b508251611b2d565b81516118819291906001600160401b038116906017821161192e576118799150606060ff84519216179061165d565b5060ff8111611945576118a39061189b8351611464565b61ffff811161195c576118a3906118c083516113ff565b63ffffffff8111611975576118a3906118e1835161139a565b6118a3906118f78351611335565b80519061198e610ff7565b508151516001810190818111610c855760208401518110156119dc575b609f60208095519283010153805182116119d4575b50500180519060018201809211610c855752565b5238806119c0565b8160011b9382850460021483151715610c8557602081611a05829761116f609f9551918461108b565b50955050506119ab565b805190611a1a610ff7565b508151516001810190818111610c85576020840151811015611a69575b60ff6020809551928301015380518211611a61575b5050018051600019810191908211610c855752565b523880611a4c565b8160011b9382850460021483151715610c8557602081611a92829761116f60ff9551918461108b565b5095505050611a37565b906001600160401b03811660178111611abf575060ff611881925191169061165d565b905060ff8111611ade5781611ad761188193516115f8565b5051611c69565b61ffff8111611afc5781611af56118819351611593565b5051611c02565b63ffffffff8111611b1c5781611b15611881935161152e565b5051611b99565b81611b2a61188193516114c9565b50515b90611b36610ff7565b50815151806008019182600811610c855760208401518311611b78575b6008845192830101906001600160401b0319825116179052805182116111d357505090565b8260011b83810460021484151715610c8557611b9490856116c8565b611b53565b90611ba2610ff7565b50815151806004019182600411610c855760208401518311611be1575b60048451928301019063ffffffff19825116179052805182116111d357505090565b8260011b83810460021484151715610c8557611bfd90856116c8565b611bbf565b90611c0b610ff7565b50815151806002019182600211610c855760208401518311611c48575b60028451928301019061ffff19825116179052805182116111d357505090565b8260011b83810460021484151715610c8557611c6490856116c8565b611c28565b90611c72610ff7565b50815151806001019182600111610c855760208401518311611cae575b60018451928301019060ff19825116179052805182116111d357505090565b8260011b83810460021484151715610c8557611cca90856116c8565b611c8f565b601f8111611cdb575050565b6000906003825260008051602061209e833981519152906020601f850160051c83019410611d24575b601f0160051c01915b828110611d1957505050565b818155600101611d0d565b9092508290611d04565b601f8111611d3a575050565b6000906002825260008051602061207e833981519152906020601f850160051c83019410611d83575b601f0160051c01915b828110611d7857505050565b818155600101611d6c565b9092508290611d63565b9081516001600160401b0381116102a057611db281611dad60035461035b565b611ccf565b602080601f8311600114611dee5750819293600092611de3575b50508160011b916000199060031b1c191617600355565b015190503880611dcc565b90601f19831694611e0f600360005260008051602061209e83398151915290565b926000905b878210611e4c575050836001959610611e33575b505050811b01600355565b015160001960f88460031b161c19169055388080611e28565b80600185968294968601518155019501930190611e14565b9081516001600160401b0381116102a057611e8981611e8460025461035b565b611d2e565b602080601f8311600114611ec55750819293600092611eba575b50508160011b916000199060031b1c191617600255565b015190503880611ea3565b90601f19831694611ee6600260005260008051602061207e83398151915290565b926000905b878210611f23575050836001959610611f0a575b505050811b01600255565b015160001960f88460031b161c19169055388080611eff565b80600185968294968601518155019501930190611eeb565b60025460009291611f4b8261035b565b80825291600190818116908115611fb05750600114611f6957505050565b91929350600260005260008051602061207e833981519152916000925b848410611f9857505060209250010190565b80546020858501810191909152909301928101611f86565b915050602093945060ff929192191683830152151560051b010190565b604081526000600354611fdf8161035b565b9081604085015260019081811690816000146120585750600114612011575b50508160206103e6938303910152611f3b565b60036000908152925060008051602061209e8339815191525b8284106120425750505081016060016103e638611ffe565b805460608587010152602090930192810161202a565b90506103e6949350606092915060ff191682840152151560051b820101909138611ffe56fe405787fa12a823e0f2b7631cc41b3ba8828b3321ca811111fa75cd3aa3bb5acec2575a0e9e593c00f959f8c92f12db2869c3395a3b0502d05e2516446f71f85ba26469706673582212209a0fde68bd6d502894cc997c9d1a5b721c68d04dccbc5327015a9a604bf67b4464736f6c63430008140033608060405234620004db576200123a803803806200001d81620004e0565b9283398101606082820312620004db5781516001600160401b039190828111620004db57816200004f91850162000506565b9060209384810151848111620004db57826200006d91830162000506565b916040820151858111620004db5762000087920162000506565b825191848311620004c5576000908154936001958686811c96168015620004ba575b89871014620003c4578190601f9687811162000467575b50899087831160011462000403578592620003f7575b5050600019600383901b1c191690861b1782555b805190868211620003e35785548681811c91168015620003d8575b89821014620003c45790818684931162000371575b5088908683116001146200030d57849262000301575b5050600019600383901b1c191690851b1784555b3315620002e95760068054336001600160a01b0319821681179092556001600160a01b03167f8be0079c531659141344cd1fd0a4f28419497f9722a3daafe3b4186f6b6457e08380a38151948511620002d5576008548481811c91168015620002ca575b87821014620002b6578381116200026d575b508592851160011462000204579394508492919083620001f8575b50501b916000199060031b1c1916176008555b604051610cc19081620005798239f35b015192503880620001d5565b6008815285812093958591601f198316915b8883831062000252575050501062000238575b505050811b01600855620001e8565b015160001960f88460031b161c1916905538808062000229565b85870151885590960195948501948793509081019062000216565b600882528682208480880160051c820192898910620002ac575b0160051c019085905b828110620002a0575050620001ba565b83815501859062000290565b9250819262000287565b634e487b7160e01b82526022600452602482fd5b90607f1690620001a8565b634e487b7160e01b81526041600452602490fd5b60249060405190631e4fbdf760e01b82526004820152fd5b01519050388062000130565b8785528985208894509190601f198416865b8c8282106200035a575050841162000340575b505050811b01845562000144565b015160001960f88460031b161c1916905538808062000332565b8385015186558b979095019493840193016200031f565b9091508684528884208680850160051c8201928b8610620003ba575b918991869594930160051c01915b828110620003ab5750506200011a565b8681558594508991016200039b565b925081926200038d565b634e487b7160e01b84526022600452602484fd5b90607f169062000105565b634e487b7160e01b83526041600452602483fd5b015190503880620000d6565b8580528a86208994509190601f198416875b8d82821062000450575050841162000436575b505050811b018255620000ea565b015160001960f88460031b161c1916905538808062000428565b8385015186558c9790950194938401930162000415565b9091508480528985208780850160051c8201928c8610620004b0575b918a91869594930160051c01915b828110620004a1575050620000c0565b8781558594508a910162000491565b9250819262000483565b95607f1695620000a9565b634e487b7160e01b600052604160045260246000fd5b600080fd5b6040519190601f01601f191682016001600160401b03811183821017620004c557604052565b919080601f84011215620004db5782516001600160401b038111620004c5576020906200053c601f8201601f19168301620004e0565b92818452828287010111620004db5760005b8181106200056457508260009394955001015290565b85810183015184820184015282016200054e56fe6080604081815260048036101561001557600080fd5b600092833560e01c90816301ffc9a714610aa25750806306fdde03146109d7578063081812fc1461099c578063095ea7b31461094657806323b872dd146108f057806342842e0e1461088e5780636352211e1461085d57806370a0823114610808578063715018a6146107ab5780638da5cb5b1461078257806395d89b41146106b657806398bdf6f514610697578063a144819414610426578063a22cb465146103ba578063b88d4fde146102f4578063c87b56dd146101cd578063e985e9c51461017b5763f2fde38b146100e957600080fd5b3461017757602036600319011261017757610102610b4e565b9061010b610c24565b6001600160a01b03918216928315610161575050600654826bffffffffffffffffffffffff60a01b821617600655167f8be0079c531659141344cd1fd0a4f28419497f9722a3daafe3b4186f6b6457e08380a380f35b51631e4fbdf760e01b8152908101849052602490fd5b8280fd5b5050346101c957806003193601126101c95760ff8160209361019b610b4e565b6101a3610b69565b6001600160a01b0391821683526005875283832091168252855220549151911615158152f35b5080fd5b509190346101c95760209081600319360112610177576101ed8435610c50565b50805192806008549060019082821c9282811680156102ea575b87851081146102d7578899509688969785829a5291826000146102b0575050600114610254575b5050506102509291610241910385610be6565b51928284938452830190610b0e565b0390f35b9190869350600883527ff3f7a9fe364faab93b216da50a3214154f22a0a2b415b23a84c8169e8b636ee35b828410610298575050508201018161024161025061022e565b8054848a01860152889550879490930192810161027f565b60ff19168782015293151560051b860190930193508492506102419150610250905061022e565b634e487b7160e01b835260228a52602483fd5b93607f1693610207565b5090346101775760803660031901126101775761030f610b4e565b50610318610b69565b5060643567ffffffffffffffff81116103b657366023820112156103b657808301359061034482610c08565b9061035184519283610be6565b82825236602484830101116103b2578260649692602095946024879401848301370101525162461bcd60e51b815291820152601e60248201527f736166655472616e7366657246726f6d2069736e277420616c6c6f77656400006044820152fd5b8580fd5b8380fd5b5082346104235782600319360112610423576103d4610b4e565b506024358015150361042357506020606492519162461bcd60e51b8352820152601f60248201527f736574417070726f76616c466f72416c6c2069736e277420616c6c6f776564006044820152fd5b80fd5b509190346101c957806003193601126101c957610441610b4e565b9261044a610c24565b60075492600019908185146106845760018501600755835161046b81610bb4565b8181526001600160a01b039680881693841561066d5787845260209860028a528785205416908115159081610642575b5085855260038a528785206001815401905588855260028a52878520866bffffffffffffffffffffffff60a01b82541617905588868951937fddf252ad1be2c89b69c2b068fc378daa952ba7f163c4a11628f55a4df523b3ef8880a461062d57503b61050c575b5050505051908152f35b84939591929451878180610547630a85bd0160e11b95868352338c840152886024840152876044840152608060648401526084830190610b0e565b0381878a5af18491816105e9575b506105b3575050503d6000146105ab573d61056f81610c08565b9061057c84519283610be6565b81528091863d92013e5b805194856105a557505051633250574960e11b81529182015260249150fd5b85925001fd5b506060610586565b9195939492506001600160e01b0319909116036105d557505038808080610502565b6024925191633250574960e11b8352820152fd5b9091508881813d8311610626575b6106018183610be6565b8101031261062257516001600160e01b031981168103610622579038610555565b8480fd5b503d6105f7565b6339e3563760e11b8152858101849052602490fd5b878b5288862080546001600160a01b031916905582865260038b52888620805490910190553861049b565b8651633250574960e11b8152808701859052602490fd5b634e487b7160e01b815260118352602490fd5b5050346101c957816003193601126101c9576020906007549051908152f35b5091346104235780600319360112610423578151918160019283549384811c91818616958615610778575b60209687851081146102d7578899509688969785829a5291826000146102b057505060011461071d575050506102509291610241910385610be6565b91908693508083527fb10e2d527612073b26eecdfd717e6a320cf44b4afac2b0732d9fcbe2b7fa0cf65b828410610760575050508201018161024161025061022e565b8054848a018601528895508794909301928101610747565b92607f16926106e1565b5050346101c957816003193601126101c95760065490516001600160a01b039091168152602090f35b83346104235780600319360112610423576107c4610c24565b600680546001600160a01b0319811690915581906001600160a01b03167f8be0079c531659141344cd1fd0a4f28419497f9722a3daafe3b4186f6b6457e08280a380f35b509134610423576020366003190112610423576001600160a01b0361082b610b4e565b169283156108485750806020938392526003845220549051908152f35b91516322718ad960e21b815291820152602490fd5b509134610423576020366003190112610423575061087d60209235610c50565b90516001600160a01b039091168152f35b509034610177576020906064936108a436610b7f565b50505081516108b281610bb4565b525162461bcd60e51b815291820152601e60248201527f736166655472616e7366657246726f6d2069736e277420616c6c6f77656400006044820152fd5b5082346104235750602060649261090636610b7f565b505050519162461bcd60e51b8352820152601a60248201527f7472616e7366657246726f6d2069736e277420616c6c6f7765640000000000006044820152fd5b508234610423578260031936011261042357506020606492610966610b4e565b505162461bcd60e51b8152918201526015602482015274105c1c1c9bdd99481a5cdb89dd08185b1b1bddd959605a1b6044820152fd5b5034610177576020366003190112610177579182602093356109bd81610c50565b50825283528190205490516001600160a01b039091168152f35b50913461042357806003193601126104235781519181825492600184811c91818616958615610a98575b60209687851081146102d7578899509688969785829a5291826000146102b0575050600114610a3d575050506102509291610241910385610be6565b91908693508280527f290decd9548b62a8d60345a988386fc84ba6bc95484008f6362f93160ef3e5635b828410610a80575050508201018161024161025061022e565b8054848a018601528895508794909301928101610a67565b92607f1692610a01565b92505034610177576020366003190112610177573563ffffffff60e01b811680910361017757602092506380ac58cd60e01b8114908115610afd575b8115610aec575b5015158152f35b6301ffc9a760e01b14905038610ae5565b635b5e139f60e01b81149150610ade565b919082519283825260005b848110610b3a575050826000602080949584010152601f8019910116010190565b602081830181015184830182015201610b19565b600435906001600160a01b0382168203610b6457565b600080fd5b602435906001600160a01b0382168203610b6457565b6060906003190112610b64576001600160a01b03906004358281168103610b6457916024359081168103610b64579060443590565b6020810190811067ffffffffffffffff821117610bd057604052565b634e487b7160e01b600052604160045260246000fd5b90601f8019910116810190811067ffffffffffffffff821117610bd057604052565b67ffffffffffffffff8111610bd057601f01601f191660200190565b6006546001600160a01b03163303610c3857565b60405163118cdaa760e01b8152336004820152602490fd5b6000818152600260205260409020546001600160a01b0316908115610c73575090565b60249060405190637e27328960e01b82526004820152fdfea264697066735822122097b002b78cc008f076a8867d40f154a3d05425e51d9ce7dcbdceda725d737f0264736f6c63430008140033",
  "devdoc": {
    "errors": {
      "ERC20InsufficientAllowance(address,uint256,uint256)": [
        {
          "details": "Indicates a failure with the `spender`s `allowance`. Used in transfers.",
          "params": {
            "allowance": "Amount of tokens a `spender` is allowed to operate with.",
            "needed": "Minimum amount required to perform a transfer.",
            "spender": "Address that may be allowed to operate on tokens without being their owner."
          }
        }
      ],
      "ERC20InsufficientBalance(address,uint256,uint256)": [
        {
          "details": "Indicates an error related to the current `balance` of a `sender`. Used in transfers.",
          "params": {
            "balance": "Current balance for the interacting account.",
            "needed": "Minimum amount required to perform a transfer.",
            "sender": "Address whose tokens are being transferred."
          }
        }
      ],
      "ERC20InvalidApprover(address)": [
        {
          "details": "Indicates a failure with the `approver` of a token to be approved. Used in approvals.",
          "params": {
            "approver": "Address initiating an approval operation."
          }
        }
      ],
      "ERC20InvalidReceiver(address)": [
        {
          "details": "Indicates a failure with the token `receiver`. Used in transfers.",
          "params": {
            "receiver": "Address to which tokens are being transferred."
          }
        }
      ],
      "ERC20InvalidSender(address)": [
        {
          "details": "Indicates a failure with the token `sender`. Used in transfers.",
          "params": {
            "sender": "Address whose tokens are being transferred."
          }
        }
      ],
      "ERC20InvalidSpender(address)": [
        {
          "details": "Indicates a failure with the `spender` to be approved. Used in approvals.",
          "params": {
            "spender": "Address that may be allowed to operate on tokens without being their owner."
          }
        }
      ],
      "OwnableInvalidOwner(address)": [
        {
          "details": "The owner is not a valid owner account. (eg. `address(0)`)"
        }
      ],
      "OwnableUnauthorizedAccount(address)": [
        {
          "details": "The caller account is not authorized to perform an operation."
        }
      ],
      "StringsInsufficientHexLength(uint256,uint256)": [
        {
          "details": "The `value` string doesn't fit in the specified `length`."
        }
      ]
    },
    "events": {
      "Approval(address,address,uint256)": {
        "details": "Emitted when the allowance of a `spender` for an `owner` is set by a call to {approve}. `value` is the new allowance."
      },
      "Transfer(address,address,uint256)": {
        "details": "Emitted when `value` tokens are moved from one account (`from`) to another (`to`). Note that `value` may be zero."
      }
    },
    "kind": "dev",
    "methods": {
      "allowance(address,address)": {
        "details": "See {IERC20-allowance}."
      },
      "approve(address,uint256)": {
        "details": "See {IERC20-approve}. NOTE: If `value` is the maximum `uint256`, the allowance is not updated on `transferFrom`. This is semantically equivalent to an infinite approval. Requirements: - `spender` cannot be the zero address."
      },
      "balanceOf(address)": {
        "details": "See {IERC20-balanceOf}."
      },
      "burn(uint256)": {
        "details": "Destroys a `value` amount of tokens from the caller. See {ERC20-_burn}."
      },
      "burnFrom(address,uint256)": {
        "details": "Destroys a `value` amount of tokens from `account`, deducting from the caller's allowance. See {ERC20-_burn} and {ERC20-allowance}. Requirements: - the caller must have allowance for ``accounts``'s tokens of at least `value`."
      },
      "decimals()": {
        "details": "Returns the number of decimals used to get its user representation. For example, if `decimals` equals `2`, a balance of `505` tokens should be displayed to a user as `5.05` (`505 / 10 ** 2`). Tokens usually opt for a value of 18, imitating the relationship between Ether and Wei. This is the default value returned by this function, unless it's overridden. NOTE: This information is only used for _display_ purposes: it in no way affects any of the arithmetic of the contract, including {IERC20-balanceOf} and {IERC20-transfer}."
      },
      "name()": {
        "details": "Returns the name of the token."
      },
      "owner()": {
        "details": "Returns the address of the current owner."
      },
      "renounceOwnership()": {
        "details": "Leaves the contract without owner. It will not be possible to call `onlyOwner` functions. Can only be called by the current owner. NOTE: Renouncing ownership will leave the contract without an owner, thereby disabling any functionality that is only available to the owner."
      },
      "symbol()": {
        "details": "Returns the symbol of the token, usually a shorter version of the name."
      },
      "totalSupply()": {
        "details": "See {IERC20-totalSupply}."
      },
      "transferOwnership(address)": {
        "details": "Transfers ownership of the contract to a new account (`newOwner`). Can only be called by the current owner."
      }
    },
    "version": 1
  },
  "userdoc": {
    "kind": "user",
    "methods": {},
    "version": 1
  },
  "storageLayout": {
    "storage": [
      {
        "astId": 2750,
        "contract": "contracts/Carbon.sol:Carbon",
        "label": "_balances",
        "offset": 0,
        "slot": "0",
        "type": "t_mapping(t_address,t_uint256)"
      },
      {
        "astId": 2756,
        "contract": "contracts/Carbon.sol:Carbon",
        "label": "_allowances",
        "offset": 0,
        "slot": "1",
        "type": "t_mapping(t_address,t_mapping(t_address,t_uint256))"
      },
      {
        "astId": 2758,
        "contract": "contracts/Carbon.sol:Carbon",
        "label": "_totalSupply",
        "offset": 0,
        "slot": "2",
        "type": "t_uint256"
      },
      {
        "astId": 2760,
        "contract": "contracts/Carbon.sol:Carbon",
        "label": "_name",
        "offset": 0,
        "slot": "3",
        "type": "t_string_storage"
      },
      {
        "astId": 2762,
        "contract": "contracts/Carbon.sol:Carbon",
        "label": "_symbol",
        "offset": 0,
        "slot": "4",
        "type": "t_string_storage"
      },
      {
        "astId": 2451,
        "contract": "contracts/Carbon.sol:Carbon",
        "label": "_owner",
        "offset": 0,
        "slot": "5",
        "type": "t_address"
      },
      {
        "astId": 6348,
        "contract": "contracts/Carbon.sol:Carbon",
        "label": "TCO2FaucetExtense",
        "offset": 0,
        "slot": "6",
        "type": "t_contract(ITCO2Faucet)7161"
      },
      {
        "astId": 6351,
        "contract": "contracts/Carbon.sol:Carbon",
        "label": "TCO2TokenExtense",
        "offset": 0,
        "slot": "7",
        "type": "t_contract(ITCO2Token)7173"
      },
      {
        "astId": 6353,
        "contract": "contracts/Carbon.sol:Carbon",
        "label": "EPNS_COMM_ADDRESS",
        "offset": 0,
        "slot": "8",
        "type": "t_address"
      },
      {
        "astId": 6355,
        "contract": "contracts/Carbon.sol:Carbon",
        "label": "LINK_TOKEN_ADDRESS",
        "offset": 0,
        "slot": "9",
        "type": "t_address"
      },
      {
        "astId": 6357,
        "contract": "contracts/Carbon.sol:Carbon",
        "label": "CARBON_CERTIFICATE_ADDRESS",
        "offset": 0,
        "slot": "10",
        "type": "t_address"
      },
      {
        "astId": 6359,
        "contract": "contracts/Carbon.sol:Carbon",
        "label": "CARBON_CALCULATOR_ADDRESS",
        "offset": 0,
        "slot": "11",
        "type": "t_address"
      },
      {
        "astId": 6361,
        "contract": "contracts/Carbon.sol:Carbon",
        "label": "TCO2TokensInContract",
        "offset": 0,
        "slot": "12",
        "type": "t_uint256"
      },
      {
        "astId": 6363,
        "contract": "contracts/Carbon.sol:Carbon",
        "label": "carbonTokensMinted",
        "offset": 0,
        "slot": "13",
        "type": "t_uint256"
      }
    ],
    "types": {
      "t_address": {
        "encoding": "inplace",
        "label": "address",
        "numberOfBytes": "20"
      },
      "t_contract(ITCO2Faucet)7161": {
        "encoding": "inplace",
        "label": "contract ITCO2Faucet",
        "numberOfBytes": "20"
      },
      "t_contract(ITCO2Token)7173": {
        "encoding": "inplace",
        "label": "contract ITCO2Token",
        "numberOfBytes": "20"
      },
      "t_mapping(t_address,t_mapping(t_address,t_uint256))": {
        "encoding": "mapping",
        "key": "t_address",
        "label": "mapping(address => mapping(address => uint256))",
        "numberOfBytes": "32",
        "value": "t_mapping(t_address,t_uint256)"
      },
      "t_mapping(t_address,t_uint256)": {
        "encoding": "mapping",
        "key": "t_address",
        "label": "mapping(address => uint256)",
        "numberOfBytes": "32",
        "value": "t_uint256"
      },
      "t_string_storage": {
        "encoding": "bytes",
        "label": "string",
        "numberOfBytes": "32"
      },
      "t_uint256": {
        "encoding": "inplace",
        "label": "uint256",
        "numberOfBytes": "32"
      }
    }
  }
}