{
	"address": "0x0F6694E039d011D19de986A7fA30c84C18705dc9",
	"_format": "hh-sol-artifact-1",
	"contractName": "Certificate",
	"sourceName": "contracts/Certificate.sol",
	"abi": [
		{
			"inputs": [
				{
					"internalType": "string",
					"name": "_name",
					"type": "string"
				},
				{
					"internalType": "string",
					"name": "_symbol",
					"type": "string"
				},
				{
					"internalType": "string",
					"name": "_baseURI",
					"type": "string"
				}
			],
			"stateMutability": "nonpayable",
			"type": "constructor"
		},
		{
			"inputs": [],
			"name": "ERC721EnumerableForbiddenBatchMint",
			"type": "error"
		},
		{
			"inputs": [
				{
					"internalType": "address",
					"name": "sender",
					"type": "address"
				},
				{
					"internalType": "uint256",
					"name": "tokenId",
					"type": "uint256"
				},
				{
					"internalType": "address",
					"name": "owner",
					"type": "address"
				}
			],
			"name": "ERC721IncorrectOwner",
			"type": "error"
		},
		{
			"inputs": [
				{
					"internalType": "address",
					"name": "operator",
					"type": "address"
				},
				{
					"internalType": "uint256",
					"name": "tokenId",
					"type": "uint256"
				}
			],
			"name": "ERC721InsufficientApproval",
			"type": "error"
		},
		{
			"inputs": [
				{
					"internalType": "address",
					"name": "approver",
					"type": "address"
				}
			],
			"name": "ERC721InvalidApprover",
			"type": "error"
		},
		{
			"inputs": [
				{
					"internalType": "address",
					"name": "operator",
					"type": "address"
				}
			],
			"name": "ERC721InvalidOperator",
			"type": "error"
		},
		{
			"inputs": [
				{
					"internalType": "address",
					"name": "owner",
					"type": "address"
				}
			],
			"name": "ERC721InvalidOwner",
			"type": "error"
		},
		{
			"inputs": [
				{
					"internalType": "address",
					"name": "receiver",
					"type": "address"
				}
			],
			"name": "ERC721InvalidReceiver",
			"type": "error"
		},
		{
			"inputs": [
				{
					"internalType": "address",
					"name": "sender",
					"type": "address"
				}
			],
			"name": "ERC721InvalidSender",
			"type": "error"
		},
		{
			"inputs": [
				{
					"internalType": "uint256",
					"name": "tokenId",
					"type": "uint256"
				}
			],
			"name": "ERC721NonexistentToken",
			"type": "error"
		},
		{
			"inputs": [
				{
					"internalType": "address",
					"name": "owner",
					"type": "address"
				},
				{
					"internalType": "uint256",
					"name": "index",
					"type": "uint256"
				}
			],
			"name": "ERC721OutOfBoundsIndex",
			"type": "error"
		},
		{
			"inputs": [
				{
					"internalType": "address",
					"name": "owner",
					"type": "address"
				}
			],
			"name": "OwnableInvalidOwner",
			"type": "error"
		},
		{
			"inputs": [
				{
					"internalType": "address",
					"name": "account",
					"type": "address"
				}
			],
			"name": "OwnableUnauthorizedAccount",
			"type": "error"
		},
		{
			"anonymous": false,
			"inputs": [
				{
					"indexed": true,
					"internalType": "address",
					"name": "owner",
					"type": "address"
				},
				{
					"indexed": true,
					"internalType": "address",
					"name": "approved",
					"type": "address"
				},
				{
					"indexed": true,
					"internalType": "uint256",
					"name": "tokenId",
					"type": "uint256"
				}
			],
			"name": "Approval",
			"type": "event"
		},
		{
			"anonymous": false,
			"inputs": [
				{
					"indexed": true,
					"internalType": "address",
					"name": "owner",
					"type": "address"
				},
				{
					"indexed": true,
					"internalType": "address",
					"name": "operator",
					"type": "address"
				},
				{
					"indexed": false,
					"internalType": "bool",
					"name": "approved",
					"type": "bool"
				}
			],
			"name": "ApprovalForAll",
			"type": "event"
		},
		{
			"anonymous": false,
			"inputs": [
				{
					"indexed": true,
					"internalType": "address",
					"name": "previousOwner",
					"type": "address"
				},
				{
					"indexed": true,
					"internalType": "address",
					"name": "newOwner",
					"type": "address"
				}
			],
			"name": "OwnershipTransferred",
			"type": "event"
		},
		{
			"anonymous": false,
			"inputs": [
				{
					"indexed": true,
					"internalType": "address",
					"name": "from",
					"type": "address"
				},
				{
					"indexed": true,
					"internalType": "address",
					"name": "to",
					"type": "address"
				},
				{
					"indexed": true,
					"internalType": "uint256",
					"name": "tokenId",
					"type": "uint256"
				}
			],
			"name": "Transfer",
			"type": "event"
		},
		{
			"inputs": [
				{
					"internalType": "address",
					"name": "",
					"type": "address"
				},
				{
					"internalType": "uint256",
					"name": "",
					"type": "uint256"
				}
			],
			"name": "approve",
			"outputs": [],
			"stateMutability": "pure",
			"type": "function"
		},
		{
			"inputs": [
				{
					"internalType": "address",
					"name": "owner",
					"type": "address"
				}
			],
			"name": "balanceOf",
			"outputs": [
				{
					"internalType": "uint256",
					"name": "",
					"type": "uint256"
				}
			],
			"stateMutability": "view",
			"type": "function"
		},
		{
			"inputs": [
				{
					"internalType": "string",
					"name": "_baseURI",
					"type": "string"
				}
			],
			"name": "changeBaseURI",
			"outputs": [],
			"stateMutability": "nonpayable",
			"type": "function"
		},
		{
			"inputs": [
				{
					"internalType": "uint256",
					"name": "tokenId",
					"type": "uint256"
				}
			],
			"name": "getApproved",
			"outputs": [
				{
					"internalType": "address",
					"name": "",
					"type": "address"
				}
			],
			"stateMutability": "view",
			"type": "function"
		},
		{
			"inputs": [
				{
					"internalType": "address",
					"name": "owner",
					"type": "address"
				},
				{
					"internalType": "address",
					"name": "operator",
					"type": "address"
				}
			],
			"name": "isApprovedForAll",
			"outputs": [
				{
					"internalType": "bool",
					"name": "",
					"type": "bool"
				}
			],
			"stateMutability": "view",
			"type": "function"
		},
		{
			"inputs": [],
			"name": "name",
			"outputs": [
				{
					"internalType": "string",
					"name": "",
					"type": "string"
				}
			],
			"stateMutability": "view",
			"type": "function"
		},
		{
			"inputs": [],
			"name": "owner",
			"outputs": [
				{
					"internalType": "address",
					"name": "",
					"type": "address"
				}
			],
			"stateMutability": "view",
			"type": "function"
		},
		{
			"inputs": [
				{
					"internalType": "uint256",
					"name": "tokenId",
					"type": "uint256"
				}
			],
			"name": "ownerOf",
			"outputs": [
				{
					"internalType": "address",
					"name": "",
					"type": "address"
				}
			],
			"stateMutability": "view",
			"type": "function"
		},
		{
			"inputs": [],
			"name": "renounceOwnership",
			"outputs": [],
			"stateMutability": "nonpayable",
			"type": "function"
		},
		{
			"inputs": [
				{
					"internalType": "address",
					"name": "_to",
					"type": "address"
				}
			],
			"name": "safeMint",
			"outputs": [
				{
					"internalType": "uint256",
					"name": "",
					"type": "uint256"
				}
			],
			"stateMutability": "nonpayable",
			"type": "function"
		},
		{
			"inputs": [
				{
					"internalType": "address",
					"name": "from",
					"type": "address"
				},
				{
					"internalType": "address",
					"name": "to",
					"type": "address"
				},
				{
					"internalType": "uint256",
					"name": "tokenId",
					"type": "uint256"
				}
			],
			"name": "safeTransferFrom",
			"outputs": [],
			"stateMutability": "nonpayable",
			"type": "function"
		},
		{
			"inputs": [
				{
					"internalType": "address",
					"name": "",
					"type": "address"
				},
				{
					"internalType": "address",
					"name": "",
					"type": "address"
				},
				{
					"internalType": "uint256",
					"name": "",
					"type": "uint256"
				},
				{
					"internalType": "bytes",
					"name": "",
					"type": "bytes"
				}
			],
			"name": "safeTransferFrom",
			"outputs": [],
			"stateMutability": "pure",
			"type": "function"
		},
		{
			"inputs": [
				{
					"internalType": "address",
					"name": "",
					"type": "address"
				},
				{
					"internalType": "bool",
					"name": "",
					"type": "bool"
				}
			],
			"name": "setApprovalForAll",
			"outputs": [],
			"stateMutability": "pure",
			"type": "function"
		},
		{
			"inputs": [
				{
					"internalType": "bytes4",
					"name": "interfaceId",
					"type": "bytes4"
				}
			],
			"name": "supportsInterface",
			"outputs": [
				{
					"internalType": "bool",
					"name": "",
					"type": "bool"
				}
			],
			"stateMutability": "view",
			"type": "function"
		},
		{
			"inputs": [],
			"name": "symbol",
			"outputs": [
				{
					"internalType": "string",
					"name": "",
					"type": "string"
				}
			],
			"stateMutability": "view",
			"type": "function"
		},
		{
			"inputs": [
				{
					"internalType": "uint256",
					"name": "index",
					"type": "uint256"
				}
			],
			"name": "tokenByIndex",
			"outputs": [
				{
					"internalType": "uint256",
					"name": "",
					"type": "uint256"
				}
			],
			"stateMutability": "view",
			"type": "function"
		},
		{
			"inputs": [],
			"name": "tokenIdCounter",
			"outputs": [
				{
					"internalType": "uint256",
					"name": "",
					"type": "uint256"
				}
			],
			"stateMutability": "view",
			"type": "function"
		},
		{
			"inputs": [
				{
					"internalType": "address",
					"name": "owner",
					"type": "address"
				},
				{
					"internalType": "uint256",
					"name": "index",
					"type": "uint256"
				}
			],
			"name": "tokenOfOwnerByIndex",
			"outputs": [
				{
					"internalType": "uint256",
					"name": "",
					"type": "uint256"
				}
			],
			"stateMutability": "view",
			"type": "function"
		},
		{
			"inputs": [
				{
					"internalType": "uint256",
					"name": "tokenId",
					"type": "uint256"
				}
			],
			"name": "tokenURI",
			"outputs": [
				{
					"internalType": "string",
					"name": "",
					"type": "string"
				}
			],
			"stateMutability": "view",
			"type": "function"
		},
		{
			"inputs": [
				{
					"internalType": "address",
					"name": "_owner",
					"type": "address"
				}
			],
			"name": "tokensOfOwner",
			"outputs": [
				{
					"components": [
						{
							"internalType": "uint256",
							"name": "id",
							"type": "uint256"
						},
						{
							"internalType": "string",
							"name": "uri",
							"type": "string"
						}
					],
					"internalType": "struct Certificate.NFT[]",
					"name": "",
					"type": "tuple[]"
				}
			],
			"stateMutability": "view",
			"type": "function"
		},
		{
			"inputs": [],
			"name": "totalSupply",
			"outputs": [
				{
					"internalType": "uint256",
					"name": "",
					"type": "uint256"
				}
			],
			"stateMutability": "view",
			"type": "function"
		},
		{
			"inputs": [
				{
					"internalType": "address",
					"name": "",
					"type": "address"
				},
				{
					"internalType": "address",
					"name": "",
					"type": "address"
				},
				{
					"internalType": "uint256",
					"name": "",
					"type": "uint256"
				}
			],
			"name": "transferFrom",
			"outputs": [],
			"stateMutability": "pure",
			"type": "function"
		},
		{
			"inputs": [
				{
					"internalType": "address",
					"name": "newOwner",
					"type": "address"
				}
			],
			"name": "transferOwnership",
			"outputs": [],
			"stateMutability": "nonpayable",
			"type": "function"
		}
	],
	"bytecode": "0x60806040523480156200001157600080fd5b5060405162001a7c38038062001a7c8339810160408190526200003491620001c1565b3383836000620000458382620002e1565b506001620000548282620002e1565b5050506001600160a01b0381166200008657604051631e4fbdf760e01b81526000600482015260240160405180910390fd5b6200009181620000aa565b50600b620000a08282620002e1565b50505050620003ad565b600a80546001600160a01b038381166001600160a01b0319831681179093556040519116919082907f8be0079c531659141344cd1fd0a4f28419497f9722a3daafe3b4186f6b6457e090600090a35050565b634e487b7160e01b600052604160045260246000fd5b600082601f8301126200012457600080fd5b81516001600160401b0380821115620001415762000141620000fc565b604051601f8301601f19908116603f011681019082821181831017156200016c576200016c620000fc565b816040528381526020925086838588010111156200018957600080fd5b600091505b83821015620001ad57858201830151818301840152908201906200018e565b600093810190920192909252949350505050565b600080600060608486031215620001d757600080fd5b83516001600160401b0380821115620001ef57600080fd5b620001fd8783880162000112565b945060208601519150808211156200021457600080fd5b620002228783880162000112565b935060408601519150808211156200023957600080fd5b50620002488682870162000112565b9150509250925092565b600181811c908216806200026757607f821691505b6020821081036200028857634e487b7160e01b600052602260045260246000fd5b50919050565b601f821115620002dc57600081815260208120601f850160051c81016020861015620002b75750805b601f850160051c820191505b81811015620002d857828155600101620002c3565b5050505b505050565b81516001600160401b03811115620002fd57620002fd620000fc565b62000315816200030e845462000252565b846200028e565b602080601f8311600181146200034d5760008415620003345750858301515b600019600386901b1c1916600185901b178555620002d8565b600085815260208120601f198616915b828110156200037e578886015182559484019460019091019084016200035d565b50858210156200039d5787850151600019600388901b60f8161c191681555b5050505050600190811b01905550565b6116bf80620003bd6000396000f3fe608060405234801561001057600080fd5b506004361061014d5760003560e01c80636352211e116100c357806398bdf6f51161007c57806398bdf6f5146102ba578063a22cb465146102c3578063b88d4fde146102d6578063c87b56dd146102e9578063e985e9c5146102fc578063f2fde38b1461030f57600080fd5b80636352211e1461025357806370a0823114610266578063715018a6146102795780638462151c146102815780638da5cb5b146102a157806395d89b41146102b257600080fd5b806323b872dd1161011557806323b872dd146101e15780632f745c59146101f457806339a0c6f91461020757806340d097c31461021a57806342842e0e1461022d5780634f6ccce71461024057600080fd5b806301ffc9a71461015257806306fdde031461017a578063081812fc1461018f578063095ea7b3146101ba57806318160ddd146101cf575b600080fd5b61016561016036600461111d565b610322565b60405190151581526020015b60405180910390f35b610182610333565b6040516101719190611187565b6101a261019d36600461119a565b6103c5565b6040516001600160a01b039091168152602001610171565b6101cd6101c83660046111ca565b6103ee565b005b6008545b604051908152602001610171565b6101cd6101ef3660046111f4565b610433565b6101d36102023660046111ca565b61047b565b6101cd6102153660046112bc565b6104e0565b6101d3610228366004611305565b6104f8565b6101cd61023b3660046111f4565b61052b565b6101d361024e36600461119a565b61054b565b6101a261026136600461119a565b6105a4565b6101d3610274366004611305565b6105af565b6101cd6105f7565b61029461028f366004611305565b61060b565b6040516101719190611320565b600a546001600160a01b03166101a2565b610182610739565b6101d3600c5481565b6101cd6102d1366004611394565b610748565b6101cd6102e43660046113d0565b610790565b6101826102f736600461119a565b6107d8565b61016561030a36600461144c565b610876565b6101cd61031d366004611305565b6108a4565b600061032d826108e2565b92915050565b6060600080546103429061147f565b80601f016020809104026020016040519081016040528092919081815260200182805461036e9061147f565b80156103bb5780601f10610390576101008083540402835291602001916103bb565b820191906000526020600020905b81548152906001019060200180831161039e57829003601f168201915b5050505050905090565b60006103d082610907565b506000828152600460205260409020546001600160a01b031661032d565b60405162461bcd60e51b8152602060048201526015602482015274105c1c1c9bdd99481a5cdb89dd08185b1b1bddd959605a1b60448201526064015b60405180910390fd5b60405162461bcd60e51b815260206004820152601a60248201527f7472616e7366657246726f6d2069736e277420616c6c6f776564000000000000604482015260640161042a565b6000610486836105af565b82106104b75760405163295f44f760e21b81526001600160a01b03841660048201526024810183905260440161042a565b506001600160a01b03919091166000908152600660209081526040808320938352929052205490565b6104e8610940565b600b6104f48282611501565b5050565b6000610502610940565b600c80549081906000610514836115d7565b9190505550610523838261096d565b90505b919050565b61054683838360405180602001604052806000815250610790565b505050565b600061055660085490565b821061057f5760405163295f44f760e21b8152600060048201526024810183905260440161042a565b60088281548110610592576105926115f0565b90600052602060002001549050919050565b600061032d82610907565b60006001600160a01b0382166105db576040516322718ad960e21b81526000600482015260240161042a565b506001600160a01b031660009081526003602052604090205490565b6105ff610940565b6106096000610987565b565b60606000610618836105af565b905080600003610668576040805160008082526020820190925290610660565b6040805180820190915260008152606060208201528152602001906001900390816106385790505b509392505050565b60008167ffffffffffffffff81111561068357610683611230565b6040519080825280602002602001820160405280156106c957816020015b6040805180820190915260008152606060208201528152602001906001900390816106a15790505b50905060005b828110156106605760006106e3868361047b565b905060405180604001604052808281526020016106ff836107d8565b815250838381518110610714576107146115f0565b602002602001018190525050808061072b906115d7565b9150506106cf565b50919050565b6060600180546103429061147f565b60405162461bcd60e51b815260206004820152601f60248201527f736574417070726f76616c466f72416c6c2069736e277420616c6c6f77656400604482015260640161042a565b60405162461bcd60e51b815260206004820152601e60248201527f736166655472616e7366657246726f6d2069736e277420616c6c6f7765640000604482015260640161042a565b60606107e382610907565b50600b80546107f19061147f565b80601f016020809104026020016040519081016040528092919081815260200182805461081d9061147f565b801561086a5780601f1061083f5761010080835404028352916020019161086a565b820191906000526020600020905b81548152906001019060200180831161084d57829003601f168201915b50505050509050919050565b6001600160a01b03918216600090815260056020908152604080832093909416825291909152205460ff1690565b6108ac610940565b6001600160a01b0381166108d657604051631e4fbdf760e01b81526000600482015260240161042a565b6108df81610987565b50565b60006001600160e01b0319821663780e9d6360e01b148061032d575061032d826109d9565b6000818152600260205260408120546001600160a01b03168061052357604051637e27328960e01b81526004810184905260240161042a565b600a546001600160a01b031633146106095760405163118cdaa760e01b815233600482015260240161042a565b6104f4828260405180602001604052806000815250610a29565b600a80546001600160a01b038381166001600160a01b0319831681179093556040519116919082907f8be0079c531659141344cd1fd0a4f28419497f9722a3daafe3b4186f6b6457e090600090a35050565b60006001600160e01b031982166380ac58cd60e01b1480610a0a57506001600160e01b03198216635b5e139f60e01b145b8061032d57506301ffc9a760e01b6001600160e01b031983161461032d565b610a338383610a40565b6105466000848484610aa5565b6001600160a01b038216610a6a57604051633250574960e11b81526000600482015260240161042a565b6000610a7883836000610bcf565b90506001600160a01b03811615610546576040516339e3563760e11b81526000600482015260240161042a565b6001600160a01b0383163b15610bc957604051630a85bd0160e11b81526001600160a01b0384169063150b7a0290610ae7903390889087908790600401611606565b6020604051808303816000875af1925050508015610b22575060408051601f3d908101601f19168201909252610b1f91810190611643565b60015b610b8b573d808015610b50576040519150601f19603f3d011682016040523d82523d6000602084013e610b55565b606091505b508051600003610b8357604051633250574960e11b81526001600160a01b038516600482015260240161042a565b805181602001fd5b6001600160e01b03198116630a85bd0160e11b14610bc757604051633250574960e11b81526001600160a01b038516600482015260240161042a565b505b50505050565b6000610bdc848484610be4565b949350505050565b600080610bf2858585610cb1565b90506001600160a01b038116610c4f57610c4a84600880546000838152600960205260408120829055600182018355919091527ff3f7a9fe364faab93b216da50a3214154f22a0a2b415b23a84c8169e8b636ee30155565b610c72565b846001600160a01b0316816001600160a01b031614610c7257610c728185610daa565b6001600160a01b038516610c8e57610c8984610e3b565b610bdc565b846001600160a01b0316816001600160a01b031614610bdc57610bdc8585610eea565b6000828152600260205260408120546001600160a01b0390811690831615610cde57610cde818486610f3a565b6001600160a01b03811615610d1c57610cfb600085600080610f9e565b6001600160a01b038116600090815260036020526040902080546000190190555b6001600160a01b03851615610d4b576001600160a01b0385166000908152600360205260409020805460010190555b60008481526002602052604080822080546001600160a01b0319166001600160a01b0389811691821790925591518793918516917fddf252ad1be2c89b69c2b068fc378daa952ba7f163c4a11628f55a4df523b3ef91a4949350505050565b6000610db5836105af565b600083815260076020526040902054909150808214610e08576001600160a01b03841660009081526006602090815260408083208584528252808320548484528184208190558352600790915290208190555b5060009182526007602090815260408084208490556001600160a01b039094168352600681528383209183525290812055565b600854600090610e4d90600190611660565b60008381526009602052604081205460088054939450909284908110610e7557610e756115f0565b906000526020600020015490508060088381548110610e9657610e966115f0565b6000918252602080832090910192909255828152600990915260408082208490558582528120556008805480610ece57610ece611673565b6001900381819060005260206000200160009055905550505050565b60006001610ef7846105af565b610f019190611660565b6001600160a01b039093166000908152600660209081526040808320868452825280832085905593825260079052919091209190915550565b610f458383836110a4565b610546576001600160a01b038316610f7357604051637e27328960e01b81526004810182905260240161042a565b60405163177e802f60e01b81526001600160a01b03831660048201526024810182905260440161042a565b8080610fb257506001600160a01b03821615155b15611074576000610fc284610907565b90506001600160a01b03831615801590610fee5750826001600160a01b0316816001600160a01b031614155b80156110015750610fff8184610876565b155b1561102a5760405163a9fbf51f60e01b81526001600160a01b038416600482015260240161042a565b81156110725783856001600160a01b0316826001600160a01b03167f8c5be1e5ebec7d5bd14f71427d1e84f3dd0314c0f7b2291e5b200ac8c7c3b92560405160405180910390a45b505b5050600090815260046020526040902080546001600160a01b0319166001600160a01b0392909216919091179055565b60006001600160a01b03831615801590610bdc5750826001600160a01b0316846001600160a01b031614806110de57506110de8484610876565b80610bdc5750506000908152600460205260409020546001600160a01b03908116911614919050565b6001600160e01b0319811681146108df57600080fd5b60006020828403121561112f57600080fd5b813561113a81611107565b9392505050565b6000815180845260005b818110156111675760208185018101518683018201520161114b565b506000602082860101526020601f19601f83011685010191505092915050565b60208152600061113a6020830184611141565b6000602082840312156111ac57600080fd5b5035919050565b80356001600160a01b038116811461052657600080fd5b600080604083850312156111dd57600080fd5b6111e6836111b3565b946020939093013593505050565b60008060006060848603121561120957600080fd5b611212846111b3565b9250611220602085016111b3565b9150604084013590509250925092565b634e487b7160e01b600052604160045260246000fd5b600067ffffffffffffffff8084111561126157611261611230565b604051601f8501601f19908116603f0116810190828211818310171561128957611289611230565b816040528093508581528686860111156112a257600080fd5b858560208301376000602087830101525050509392505050565b6000602082840312156112ce57600080fd5b813567ffffffffffffffff8111156112e557600080fd5b8201601f810184136112f657600080fd5b610bdc84823560208401611246565b60006020828403121561131757600080fd5b61113a826111b3565b60006020808301818452808551808352604092508286019150828160051b87010184880160005b8381101561138657888303603f1901855281518051845287015187840187905261137387850182611141565b9588019593505090860190600101611347565b509098975050505050505050565b600080604083850312156113a757600080fd5b6113b0836111b3565b9150602083013580151581146113c557600080fd5b809150509250929050565b600080600080608085870312156113e657600080fd5b6113ef856111b3565b93506113fd602086016111b3565b925060408501359150606085013567ffffffffffffffff81111561142057600080fd5b8501601f8101871361143157600080fd5b61144087823560208401611246565b91505092959194509250565b6000806040838503121561145f57600080fd5b611468836111b3565b9150611476602084016111b3565b90509250929050565b600181811c9082168061149357607f821691505b60208210810361073357634e487b7160e01b600052602260045260246000fd5b601f82111561054657600081815260208120601f850160051c810160208610156114da5750805b601f850160051c820191505b818110156114f9578281556001016114e6565b505050505050565b815167ffffffffffffffff81111561151b5761151b611230565b61152f81611529845461147f565b846114b3565b602080601f831160018114611564576000841561154c5750858301515b600019600386901b1c1916600185901b1785556114f9565b600085815260208120601f198616915b8281101561159357888601518255948401946001909101908401611574565b50858210156115b15787850151600019600388901b60f8161c191681555b5050505050600190811b01905550565b634e487b7160e01b600052601160045260246000fd5b6000600182016115e9576115e96115c1565b5060010190565b634e487b7160e01b600052603260045260246000fd5b6001600160a01b038581168252841660208201526040810183905260806060820181905260009061163990830184611141565b9695505050505050565b60006020828403121561165557600080fd5b815161113a81611107565b8181038181111561032d5761032d6115c1565b634e487b7160e01b600052603160045260246000fdfea264697066735822122095c9140e4b45c6b52a4e47a8dc7103f8c5c09def8f5ddd90917bb78b90daa66364736f6c63430008140033",
	"linkReferences": {},
	"deployedLinkReferences": {}
}